{
  "contractName": "GreatestNumber",
  "abi": [
    {
      "inputs": [],
      "stateMutability": "nonpayable",
      "type": "constructor"
    },
    {
      "inputs": [
        {
          "internalType": "uint256",
          "name": "_a",
          "type": "uint256"
        },
        {
          "internalType": "uint256",
          "name": "_b",
          "type": "uint256"
        },
        {
          "internalType": "uint256",
          "name": "_c",
          "type": "uint256"
        },
        {
          "internalType": "uint256",
          "name": "_d",
          "type": "uint256"
        }
      ],
      "name": "setNumbers",
      "outputs": [],
      "stateMutability": "nonpayable",
      "type": "function"
    },
    {
      "inputs": [],
      "name": "getGreatestNumnber",
      "outputs": [
        {
          "internalType": "uint256",
          "name": "",
          "type": "uint256"
        }
      ],
      "stateMutability": "view",
      "type": "function",
      "constant": true
    }
  ],
  "bytecode": "0x6080604052348015600e575f80fd5b503360045f6101000a81548173ffffffffffffffffffffffffffffffffffffffff021916908373ffffffffffffffffffffffffffffffffffffffff1602179055506103e88061005c5f395ff3fe608060405234801561000f575f80fd5b5060043610610034575f3560e01c8063256fee5314610038578063810fcbac14610054575b5f80fd5b610052600480360381019061004d9190610288565b610072565b005b61005c610122565b60405161006991906102fb565b60405180910390f35b3373ffffffffffffffffffffffffffffffffffffffff1660045f9054906101000a900473ffffffffffffffffffffffffffffffffffffffff1673ffffffffffffffffffffffffffffffffffffffff1614610101576040517f08c379a00000000000000000000000000000000000000000000000000000000081526004016100f890610394565b60405180910390fd5b835f8190555082600181905550816002819055508060038190555050505050565b5f3373ffffffffffffffffffffffffffffffffffffffff1660045f9054906101000a900473ffffffffffffffffffffffffffffffffffffffff1673ffffffffffffffffffffffffffffffffffffffff16146101b2576040517f08c379a00000000000000000000000000000000000000000000000000000000081526004016101a990610394565b60405180910390fd5b6001545f541180156101c657506002545f54115b80156101d457506003545f54115b156101e2575f54905061024e565b5f546001541180156101f75750600254600154115b80156102065750600354600154115b1561021557600154905061024e565b5f5460025411801561022a5750600154600254115b80156102395750600354600254115b1561024857600254905061024e565b60035490505b90565b5f80fd5b5f819050919050565b61026781610255565b8114610271575f80fd5b50565b5f813590506102828161025e565b92915050565b5f805f80608085870312156102a05761029f610251565b5b5f6102ad87828801610274565b94505060206102be87828801610274565b93505060406102cf87828801610274565b92505060606102e087828801610274565b91505092959194509250565b6102f581610255565b82525050565b5f60208201905061030e5f8301846102ec565b92915050565b5f82825260208201905092915050565b7f4f6e6c7920746865206f776e6572206f66207468697320636f6e7472616374205f8201527f63616e2061636365737300000000000000000000000000000000000000000000602082015250565b5f61037e602a83610314565b915061038982610324565b604082019050919050565b5f6020820190508181035f8301526103ab81610372565b905091905056fea2646970667358221220a811a43aa45d82ed8e3f9701dedb988b4d3b340534598327ef7fbfc3f8e0cb4664736f6c63430008190033",
  "immutableReferences": {},
  "source": "// SPDX-License-Identifier: MIT\npragma solidity ^0.8.25;\ncontract GreatestNumber{\n\n    uint private a;\n    uint private b;\n    uint private c;\n    uint private d;\n    address owner;\n\n    constructor(){\n        owner = msg.sender;\n    }\n\n    modifier onlyOwner{\n        require (owner == msg.sender, \"Only the owner of this contract can access\");\n        _;\n    }\n\n    function setNumbers(uint _a, uint _b, uint _c, uint _d) public onlyOwner {\n        a = _a;\n        b = _b;\n        c = _c;\n        d = _d;\n    }\n\n    function getGreatestNumnber() public view onlyOwner returns(uint){\n        if (a > b && a > c && a > d){\n            return a;\n        }\n        else if ( b > a && b > c && b > d) {\n            return  b;\n        }\n        else if ( c > a && c > b && c > d){\n            return c;\n        }\n        else {\n            return d;\n        }\n    }\n}\n",
  "sourcePath": "/workspace/solidity_starter/contracts/GreatestNumber.sol",
  "compiler": {
    "name": "solc",
    "version": "0.8.25+commit.b61c2a91.Emscripten.clang"
  },
  "schemaVersion": "3.4.16",
  "updatedAt": "2024-05-15T18:14:01.405Z",
  "networkType": "ethereum",
  "devdoc": {
    "kind": "dev",
    "methods": {},
    "version": 1
  },
  "userdoc": {
    "kind": "user",
    "methods": {},
    "version": 1
  }
}